:020000042000DA
:1010000080B60020FD1A00200D2A020039280200B7
:101010003928020039280200392802003928020044
:10102000392802003928020039280200BD250200B3
:10103000392802003928020061250200391B0020EE
:101040005D2902005D2902005D2902005D29020080
:101050005D2902005D2902005D2902005D29020070
:101060005D2902005D2902005D2902005D29020060
:101070005D2902005D2902005D2902005D29020050
:101080005D2902005D2902005D2902005D29020040
:101090005D2902005D2902005D2902005D29020030
:1010A0005D2902005D2902005D2902005D29020020
:1010B0005D2902005D2902005D2902005D29020010
:1010C0004154420000100020A09C0020FD1A002086
:1010D0000000000000000000000000000000000010
:1010E0000348854600F064FD00480047054B00209A
:1010F00080B6002008001900044A9047020003B49B
:101100000148019001BD0000D9EC0000F52E00203F
:1011100028003900044A9047020003B401480190B6
:1011200001BD0000EFED0000F52E0020FEB5174ECA
:10113000174FB81BC00801900024354617E02868F7
:10114000410849001348A2008150686841084900DD
:1011500010483030A20081500E484038006B012109
:10116000A14008430B4940390863641C08350198C5
:101170008442E4DB08A0009006484038036B06A2D6
:1011800006A108A000F026FDFEBD0000BC750020F1
:101190000C760020809000400000000070617463B5
:1011A000680000005B25735D20257343544C3A3082
:1011B00078257825730A0000FEB5154E154FB81B2B
:1011C000C00801900024354613E01348A2002968A6
:1011D000815011483030A200696881500E481038A3
:1011E000C0680121A14008430B491039C860641C44
:1011F000083501988442E8DB08A0009006481038C2
:10120000C36806A206A108A000F0E4FCFEBD000031
:101210000C76002064760020109000400000000052
:1012200070617463680000005B25735D2025734363
:10123000544C3A3078257825730A0000704710B571
:10124000002000F0CDFCC4B2002C02D0012C02D151
:1012500000E001E000E000BF00BF10BD70B5054632
:10126000FFF7EDFF04F01EFA1F4805F024FC3021C3
:10127000084304461C4905F054FC1C48007800F063
:10128000B5FC642000F0B8FC002000F0BBFC00209E
:1012900000F0BEFC002000F0C1FC1549154805F027
:1012A00040FC1348001F05F006FC012108430446DA
:1012B0000F49091F05F035FC04210F4800F0B4FC6C
:1012C000FFF734FFFFF778FFFFF7B8FF00200B4967
:1012D00008600B48486000221146104600F0AAFC46
:1012E0000024002070BD0000048000400078002031
:1012F00004900040001000209C710020A09C002061
:10130000A1DA000014481549086004201449087047
:1013100014481549086004201449087014481549F8
:101320000860032014490870144815490860092012
:1013300014490870144815490860062014490870BB
:10134000144815490860154815490860154816499C
:101350000860002070470000287B0020840A0020DD
:101360002C0B0020547B0020280B0020A00B002019
:10137000747B00209C0A00201E0B0020B07A002005
:10138000B00B0020900B0020F87A0020900A00207B
:10139000980B0020B5140020940B0020F9150020B4
:1013A000E80A0020BD490020A40B002070B50546C6
:1013B0000020244908622449224841620022012178
:1013C000042000F037FC042400201E4988621F49D5
:1013D0001C48C16200220121052000F02BFC0524DD
:1013E0000020184908641A49164841640022012166
:1013F000082000F01FFC08240020124988641549C9
:101400001048C16400220121092000F013FC0924C6
:1014100000200C49086610490A484166002211461E
:101420000C2000F007FC0C2401200C4908700C482B
:101430000C4908600C480D490860FFF763FF002065
:1014400070BD0000A09C00209149002055F00000D4
:1014500065F00000994900206DE00000B40B002009
:1014600068AD0020800A00209CAD0020940A002076
:1014700070B5062000F0E4FBC5B280200540002DC9
:1014800001D0002070BD522000F0DAFB064660203B
:1014900000F0D6FB04460548864204D10448844245
:1014A00001D10020EEE70120ECE70000CF550F1836
:1014B000CF4F0F1910B5012400F0C8FBFFF7D8FF7C
:1014C000002802D000F016F80FE000F0C5FB04463B
:1014D000002C00D109E000F0C5FB0446002C00D12F
:1014E00003E000F0C5FB044600BF00F0C7FB204648
:1014F00010BD000010B50024692001F029FE632012
:1015000001F026FE1D4A20210A2000F0BDFB044602
:10151000002C03D12B2001F01BFE02E02D2001F056
:1015200017FE622001F014FE642001F011FE144A3F
:1015300020210B2000F0A8FB0446002C03D12B2017
:1015400001F006FE02E02D2001F002FE742001F001
:10155000FFFD782001F0FCFD0A4A8821152000F0EB
:1015600093FB0446002C03D12B2001F0F1FD02E097
:101570002D2001F0EDFD012010BD0000B46F002012
:101580001878002038780020F7B584B00E4617464A
:10159000049800F07FFB002E02D1012007B0F0BDBF
:1015A00002A800F07DFB6846007A042800D01DE008
:1015B000039C2078641C0190241D01980E2800D003
:1015C00014E02578641C002F08D02078641C00905B
:1015D000002D02D10098002803D007E0002D00D094
:1015E00004E0039800F062FB0120D7E7039800F0C5
:1015F0005DFB0020D2E70000F7B5C2B007460E46FB
:1016000027A000F0E7FA6D46012140A8017041953E
:101610002C4603202070641CFC202070641C0420D5
:101620002070641C2770641C38122070641C2670A3
:10163000641C30122070641C072140A841800122E4
:101640001146FFF7A1FF002804D1394619A000F088
:10165000C1FA22E02C4604202070641CFC2020707B
:10166000641C2670641C32462046449900F072FACD
:10167000F01C40A948800122114640A8FFF784FFD2
:10168000002804D1394613A000F0A4FA05E019A0FF
:1016900000F0A0FA012045B0F0BD0020FBE70000FB
:1016A0006C6C63496E69745472696D55706C6F61CE
:1016B000640A00005478205452494D5F4C4F414415
:1016C000206661696C65642C20747970653A3078A5
:1016D00025780A005478205452494D5F44415441C2
:1016E000206661696C65642C20747970653A307885
:1016F00025780A005478205452494D5F44415441A2
:1017000020646F6E650A000070B5054607480849F9
:10171000886708490648C167002211460F2000F07B
:1017200089FA0F240F2000F0C7FA70BDFC73002067
:10173000A09C002091DA000010B50349002005F0BC
:10174000EEF901F0B1FC10BD1C40004010B50022C4
:10175000012189021C4800F0B5FA0446002C01D092
:10176000204610BD0F2201214902184800F0B0FAAE
:101770000446002C01D02046F3E70521C901144896
:1017800000F0ACFA0446002C01D02046E9E7002224
:10179000D243012189020F4800F0A6FA0446002C2A
:1017A00001D02046DDE70C480C4908600C480D4983
:1017B00008600D480D4908600D480E4908600E4844
:1017C0000E4908600020CCE7D07D0020CC710020BD
:1017D00000B40020D08100207C740020AC0D0020DB
:1017E000BC750020440A0020BC750020840900203C
:1017F000D0850020480A002094760020C8090020E7
:1018000030B587B007228B2189007D4800F072FA3D
:101810000446002C02D0204607B030BD0822D1017A
:10182000784800F06DFA0446002C01D02046F3E71A
:10183000754800F06BFA0446002C01D02046EBE717
:101840000321724800F068FA0446002C01D02046BB
:10185000E2E76F4800F066FA0446002C01D020460B
:10186000DAE704216B4800F063FA0446002C01D04B
:101870002046D1E7032000F061FA0446002C01D095
:101880002046C9E74221442000F05EFA0446002CBD
:1018900001D02046C0E707215F4800F05BFA04460C
:1018A000002C01D02046B7E701215C4800F058FA2F
:1018B0000446002C01D02046AEE70121584800F034
:1018C00055FA0446002C01D02046A5E701215548D1
:1018D00000F052FA0446002C01D020469CE7524802
:1018E00000F050FA0446002C01D0204694E7022173
:1018F000412000F04DFA0446002C01D020468BE731
:101900004A48006800F04AFA85B2494802882946E8
:101910004648006800F048FA0446002C01D02046F2
:101920007AE7444A0121444800F044FA0446002C76
:1019300001D0204670E7012000F042FA0446002C56
:1019400001D0204668E701213C4800F03FFA0446F8
:10195000002C01D020465FE70121394800F03CFA15
:101960000446002C01D0204656E77D20C00000F040
:1019700039FA0446002C01D020464DE7002103200F
:1019800000F036FA0021082000F032FA002105208C
:1019900000F02EFA0021062000F02AFA802204210D
:1019A000084600F02BFA012000F02EFA0822FF2151
:1019B00015311F20400100F02DFA142221A102A8A8
:1019C00000F0C8F802A800F0E9F905462A4602A985
:1019D00021A000F025FA0446002C06DB694602A887
:1019E00004F0ACFF684600F021FA01220E2103202A
:1019F00000F022FA002000F025FA00200CE7000099
:101A000070920020A0940020A4740020347900205B
:101A10007C7400209475002000AF002038AF0020B7
:101A2000FCAF0020F8B00020407900202C79002085
:101A300030790020ED600020F0AE002094B100204D
:101A400038B3002031313A32323A33333A61613AB5
:101A500062623A636300000042545F4144445200B2
:101A600001460248024A1060002070470118002019
:101A7000440C002038B50446002C08D00DA02346A5
:101A80000CA20DA100900FA000F0A4F838BD002119
:101A9000022002F09DF8002015490870154800F05A
:101AA000D7F9154800F0DAF904F0CCF901F008F99B
:101AB00000BFEBE700000000627474657374657228
:101AC000000000005B25735D202573426C75657412
:101AD0006F6F746820696E6974206661696C6564F3
:101AE00020286572722025642925730A00000000F1
:101AF000000C0020E4760020007700200F481048FA
:101B00001049114A00F038F80D480E49401880F38A
:101B10000988022080F314880C4880470C4800474D
:101B2000EFF3108072B67047002800D162B670479C
:101B3000FEE7FEE7FEE7FEE7FEE7FEE70000000047
:101B400000B4002080020000AA0000003917002025
:101B5000E110002003460B439B0703D009E008C9AE
:101B6000121F08C0042AFAD203E00B780370401C4D
:101B7000491C521EF9D27047D2B201E00270401CDB
:101B8000491EFBD270470022F6E710B513460A46FD
:101B900004461946FFF7F0FF204610BD0346032216
:101BA0000870000A491C521EFAD5184670470000FA
:101BB000064C0125064E05E0E36807CC2B430C3CA0
:101BC00098471034B442F7D3FFF78EFABC71002067
:101BD000CC71002003B40148019001BDD52A010059
:101BE00003B40148019001BD0524020003B401487B
:101BF000019001BD8922020003B40148019001BD9A
:101C00003920020003B40148019001BD25220200E1
:101C100003B40148019001BD5522020003B40148FC
:101C2000019001BDF122020003B40148019001BD01
:101C30006D21020003B40148019001BD1927020083
:101C400003B40148019001BD7923020003B40148A7
:101C5000019001BDD923020003B40148019001BDE8
:101C60001DF3000003B40148019001BD45F30000DD
:101C700003B40148019001BDA9F3000003B4014879
:101C8000019001BDEF23020003B40148019001BDA2
:101C900085F1000003B40148019001BDB9F00000D6
:101CA00003B40148019001BD01F1000003B40148F3
:101CB000019001BDA9F0000003B40148019001BDED
:101CC000D526020003B40148019001BD99B000007F
:101CD00003B40148019001BDC9B0000003B401483C
:101CE000019001BDF1B0000003B40148019001BDB5
:101CF00011D4000003B40148019001BDED3F010083
:101D000003B40148019001BD1540010003B401482E
:101D1000019001BD3D40010003B40148019001BDA7
:101D20005540010003B40148019001BDE57C01006C
:101D300003B40148019001BDCDAA010003B40148DC
:101D4000019001BDD191010003B40148019001BD92
:101D5000E991010003B40148019001BD217D01001A
:101D600003B40148019001BDFD7C010003B40148AA
:101D7000019001BDEDAA010003B40148019001BD2D
:101D8000FD91010003B40148019001BD354F0100F0
:101D900003B40148019001BDADAA010003B401489C
:101DA000019001BD93A4000003B40148019001BD5E
:101DB0002DC4010003B40148019001BD49C40100D4
:101DC00003B40148019001BD7540010003B401480E
:101DD000019001BD55E2010003B40148019001BD2D
:101DE000D90B020003B40148019001BD79460100FE
:101DF00003B40148019001BD954F010003B40148AF
:101E0000019001BDC977010003B40148019001BDF3
:101E10004178010003B40148019001BDE177010060
:101E200003B40148019001BD711F010003B40148D2
:101E3000019001BDAD77010003B40148019001BDDF
:101E40009977010003B40148019001BDC13F010031
:101E500003B40148019001BD7580010003B401483D
:101E6000019001BDA98E010003B40148019001BD9C
:101E7000E921010003B40148019001BDCD22020017
:101E800003B40148019001BDA922020003B4014836
:101E9000019001BD9D07010003B40148019001BDFF
:101EA0001BA5000003B40148019001BD473D01009E
:101EB00003B40148019001BD9717020003B4014823
:101EC000019001BD8717020003B40148019001BDD4
:101ED000316D010003B40148019001BD158B010073
:101EE00003B40148019001BD252B020003B4014851
:101EF000019001BD31AB010003B40148019001BD67
:101F000081B4000003B40148019001BDCD880100F7
:101F100003B40148019001BD5D8F010003B4014885
:101F2000019001BDED2A010003B40148019001BDFB
:101F3000D58E010003B40148019001BD2DA400001D
:101F400003B40148019001BD3D1F010003B40148E5
:101F5000019001BD77BD000003B40148019001BDAF
:101F600041AE000003B40148019001BDD9BD00009D
:101F700003B40148019001BDF987010003B4014891
:101F8000019001BDC388010003B40148019001BD67
:101F90007189010003B40148019001BD454300006F
:101FA00003B40148019001BD512B020003B4014864
:101FB000019001BD7716020003B40148019001BDF4
:101FC000A5A4000003B40148019001BD21DD01007A
:101FD00003B40148019001BD45D4010003B4014898
:101FE000019001BD99DC010003B40148019001BDDD
:101FF000916E010003B40148019001BD054101004B
:1020000003B40148019001BD9315020003B40148D7
:10201000019001BD09F8000003B40148019001BD21
:102020008140010003B40148019001BD45D9010080
:1020300003B40148019001BDF9B5000003B40148A3
:10204000019001BDC5B5000003B40148019001BD78
:102050000521020003B40148019001BD61D30000D5
:1020600003B40148019001BD3146010003B40148A9
:10207000019001BD518C010003B40148019001BDE4
:10208000B588010003B40148019001BD4575010008
:1020900003B40148019001BDD10D020003B4014811
:1020A000019001BD8D0B020003B40148019001BDF8
:1020B0001180010003B40148019001BD25300200E8
:1020C00003B40148019001BDB1E6000003B401482A
:1020D000019001BDC5E7000003B40148019001BDB6
:1020E000C5E9000003B40148019001BD5DF00000A6
:1020F00003B40148019001BD6DF0000003B4014834
:10210000019001BDA9E5000003B40148019001BDA3
:102110007DE4000003B40148019001BD71E10000BD
:1021200003B40148019001BD7FE6000003B40148FB
:10213000019001BD69E6000003B40148019001BDB2
:102140009DE7000003B40148019001BDB9290200D8
:1021500003B40148019001BDB514020003B4014865
:10216000019001BDF72A020003B40148019001BDAE
:10217000173E010003B40148019001BD553E010026
:1021800003B40148019001BD3D15020003B40148AC
:10219000019001BD4173010003B40148019001BDEC
:1021A00079DB010003B40148019001BD21DA01008F
:1021B00003B40148019001BD7715020003B4014842
:1021C000019001BDCDD2000003B40148019001BDD2
:1021D000FB2A020003B40148019001BD6D720100A9
:1021E00003B40148019001BD0D75010003B401481D
:1021F000019001BD851F010003B40148019001BD9C
:10220000DDD8000030B47446641E2578641CAB42EF
:1022100004D3635D5B00E31830BC18471D46F8E744
:1022200002E008C8121F08C1002AFAD1704770479F
:10223000002001E001C1121F002AFBD170470000FD
:1022400070B501460869401C002801D1401E70BDD0
:1022500016480A464368934201D1012300E0002357
:10226000002B15D1114D0B46002B08D01C466E6873
:10227000A64201D1002600E02668344600E0002492
:10228000204600BF024613690C691B19136100BF89
:1022900000BF4A68086810600A684868506000BF5C
:1022A0000020C04308610020D1E70000A8060020FC
:1022B00070B50546A80007490C5804E0266820467A
:1022C000716888470C34681C800002490858A04295
:1022D000F4D870BD1879002070B504462046FFF789
:1022E000C3FD0546284670BD70B506460D4614462A
:1022F000012D0FD12068032804D10220FFF7BAFD79
:10230000002070BD2068012804D10220FFF7B8FD2D
:102310000020F6E70020F4E770B504462046FFF7FA
:10232000B5FD0546284670BDF8B504460D460020AB
:10233000009020460178012901D0002107E0817931
:10234000C0221140402901D1012100E000210029D3
:102350000AD100BF072221462846FFF79DFD00282D
:1023600020D1012000901DE0661C2F464037062238
:1023700039463046FFF790FD002801D1012000903A
:10238000611C28463030FFF78DFD00280AD02E460C
:102390004036671C062239463046FFF7DBFB00BF9C
:1023A000012000900098F8BDFFB583B004460E46AA
:1023B000174625E02046FFF77BFD0546002D01D19D
:1023C00007B0F0BDA088A84202DBA088012803DA8C
:1023D0000EA0FFF7FFFBF3E72046FFF769FD029031
:1023E00006980090681EC2B23B4621680298B0472A
:1023F000002800D0E4E7691E2046FFF75FFD00BF1C
:10240000A0880128D6DC00BFDAE700004144206D37
:10241000616C666F726D65640A000000FEB5002095
:102420000090019002906348FFF74EFD0446002C97
:1024300004D0214660A0FFF7CDFBFEBD66A0FFF7EC
:10244000C9FB02F00BFA6AA0FFF7C4FB6CA0FFF710
:10245000C1FB67A0FFF7BEFBABE00021C9436846A4
:1024600002F0DAFF0028F7D0684640780300FFF753
:10247000C9FE0D9912089999152239997A8B9236CD
:10248000990064480078002802D003F0EBFD01E0D9
:1024900004F03EF88CE004F033F989E05D48007800
:1024A000002802D004F034F804E003F03DF90920DC
:1024B00003F04CFE7CE057480078002808D05648CE
:1024C0000078002801D101F0C3FC03F011FA05E007
:1024D000002003F01FFE072003F038FE68E003F041
:1024E000AFFD65E04B480078002802D0002003F0E3
:1024F00011FE4A480078002834D149480079022862
:1025000003D04748007901280CD103F0E7FA0546CB
:1025100003F042FA0646324629464248006803F074
:1025200001F800BF3B480078002804D03E480178FD
:102530003E4801F043FC3A480079022812D1354860
:102540000078002803D03A480078002803D13948A1
:102550000078002806D001203049087002F058FBAE
:1025600003F05AF924E02F48006800280BD013210B
:102570002C480068FFF7AEFC0446002C03D021462F
:102580002DA0FFF727FB13E033A0FFF723FB01206B
:1025900003F084FC0CE034A0FFF71CFB002003F0E8
:1025A0007DFC05E06846417833A0FFF713FB00BFD0
:1025B00000BF52E7751A0020426C7565746F6F7426
:1025C0006820696E6974206661696C65642028659D
:1025D0007272202564290A00426C7565746F6F74ED
:1025E0006820696E697469616C697A65640A0000C3
:1025F0002A2A2A2A2A2A2A2A2A2A2A2A2A0A0000AF
:10260000563133315F323032315F30325F30350A2C
:10261000000000006C77002076770020E176002033
:102620001DAD0020DC7600206A7700207CA9002008
:10263000E07600206D770020446973636F6E6E65ED
:102640006374696F6E206661696C656420286572C9
:1026500072202564290A00004D53475F4D49435FAE
:102660004F50454E0A0000004D53475F4D49435FB0
:10267000434C4F53450A0000206572726F72206D03
:1026800073672E74797065202564200A00000000AD
:1026900070B505460C46E106C90E01208840064685
:1026A0006109890048193146FFF71AFC70BD70B501
:1026B00005462846FFF71AFC0446002C00D170BDE1
:1026C0002046D430FFF718FC00BFF8E770B5054688
:1026D0002846FFF70BFC0446002C00D170BD2046B5
:1026E000D430FFF709FCA0200059002804D003498A
:1026F0002046AC3001F05EFE00BFEFE73075000011
:1027000070B505462846FFF7F1FB0446002C00D1C2
:1027100070BD2046D430FFF7EFFB00BFF8E70000A4
:10272000F8B504460F46124D207828700622611C29
:10273000681CFFF70FFAEF71390A297200BF0DA06C
:10274000FFF748FA002605E00948815D11A0FFF770
:1027500041FA761C092EF7D310A0FFF73BFA0920A7
:10276000034B002248210090042000F004FBF8BD38
:102770002CAD0020617476765F6765745F6361706D
:10278000735F726573706F6E73655F6576656E7487
:102790003A20000025303278200000000A000000B6
:1027A00010B5024803F010FD10BD00002577002091
:1027B00030B587B004462046FFF7A4FB05461B2230
:1027C000694600F0C9F8694603A0FFF703FA2046FE
:1027D000FFF79EFB07B030BD436F6E6669726D20D8
:1027E00070616972696E6720666F722025730A00D6
:1027F00070B58AB005460C462846FFF783FB0646AF
:102800001B2203A900F0A8F8234608A2072101A86B
:10281000FFF784FB01AA03A906A0FFF7DBF9214615
:102820002846FFF781FB0AB070BD000025303675E1
:1028300000000000436F6E6669726D2070617373F3
:102840006B657920666F722025733A2025730A0024
:10285000F8B5074615461C46069E002C05D12421D6
:102860002846FFF790F90020F8BDE86902280FD14B
:1028700020780B490870701E0A49087008460078D5
:10288000002805D008460278611C0748FFF762F966
:102890000C2003F05BFC072003F058FC0120E3E769
:1028A0007477002075770020B4A90020F8B506469B
:1028B000134C14480068FFF725FB07463878207052
:1028C0000622791C601CFFF745F9E67100250EA071
:1028D000FFF780F900BF05E00948415D12A0FFF74E
:1028E00079F96D1C082DF7D311A0FFF773F90820B3
:1028F000034B002245210090042000F03CFAF8BD73
:102900002CAD0020DC760020626174746172795F06
:102910006C6576656C5F7265706F72745F65766505
:102920006E743A200000000025303278200000004C
:102930000A00000070B504460D46072229462046CD
:10294000FFF7AAFA70BD70B504460D460722294666
:102950002046FFF7FFF870BD70B58AB004460D46FB
:1029600016462078002806D0012809D002280CD06D
:10297000032814D10EE018A107A8FFF7DBFA15E031
:1029800017A107A8FFF7D6FA10E017A107A8FFF7CD
:10299000D1FA0BE017A107A8FFF7CCFA06E02378DD
:1029A00017A20A2107A8FFF7B9FA00BF00BF07AABC
:1029B0006078A178E37802930592039104902079DE
:1029C000617900910190A3790FA231462846FFF763
:1029D000A5FA0AB070BD00007075626C69630000F2
:1029E00072616E646F6D00007075626C696320695E
:1029F0006400000072616E646F6D20696400000005
:102A00003078253032780000253032583A2530327F
:102A1000583A253032583A253032583A2530325813
:102A20003A253032582028257329000070B58AB025
:102A300004460D4616462078002806D0012809D005
:102A400002280CD0032814D10EE018A107A8FFF724
:102A500071FA15E017A107A8FFF76CFA10E017A1AB
:102A600007A8FFF767FA0BE017A107A8FFF762FABC
:102A700006E0237817A20A2107A8FFF74FFA00BF44
:102A800000BF07AA6078A178E378029305920391CA
:102A900004902079617900910190A3790FA23146C9
:102AA0002846FFF73BFA0AB070BD00007075626CF3
:102AB0006963000072616E646F6D00007075626C16
:102AC000696320696400000072616E646F6D206943
:102AD000640000003078253032780000253032580C
:102AE0003A253032583A253032583A253032583A61
:102AF000253032583A2530325820282573290000D5
:102B0000FEB506460C461D4F072239463046FFF7F4
:102B1000C3F9002807D034213846FFF734F831468E
:102B20003846FFF710FF208800F046F90546002DD3
:102B300022DBAA0011490831501804222146FFF770
:102B4000ABF9002818D0A9000C48083008182188D3
:102B50000180618841803422084909A0FFF7F0F91B
:102B6000002809DB08A1608801910090238806A253
:102B700006A108A0FFF72EF8FEBD0000C8B3002094
:102B800042545F43434300000000000062745F68EA
:102B90006F7374005B25735D20257353746F7269C6
:102BA0006E67204343433A2068616E646C65203051
:102BB00078253034782076616C7565203078253042
:102BC000347825730A000000F8B504460D46164611
:102BD0001F4620460C380300FFF714FB07050A0FB9
:102BE0001423191E23003946304603F003FDF8BDB7
:102BF0003946304603F0BCFDF9E73946304600F06F
:102C0000EFF9F4E73946304600F052FDEFE7394678
:102C1000304602F025FAEAE73946304604F0CEF8AD
:102C2000E5E702232A462146012000F089F800BF8B
:102C3000DDE7F8B504460D4616461F461A2C02D0AD
:102C40001B2C07D100E000BF22463946304600F079
:102C500059F9F8BD02232A462146184600F070F8BB
:102C600000BFF6E7F8B504460D4616461F4623009A
:102C7000FFF7C8FA061D04090E13181D3946304621
:102C800003F0E6FAF8BD3946304603F0BFFAF9E73B
:102C90003946304603F03EFDF4E73946304602F04F
:102CA000BFFCEFE73946304603F081FEEAE7022336
:102CB0002A462146042000F043F800BFE2E7000066
:102CC00030B587B0002408E0FF2005306043164A85
:102CD00081181648FFF73AF9641C022CF4DB002037
:102CE0000822D2430290049005900090104B03926A
:102CF0000190012292020F490F48FFF72DF90021A0
:102D00000A48FFF72FF905460C4AFF210131281D1B
:102D100003F0B2FF00200346FF228021009000F064
:102D20002AF807B030BD0000A0AA00206476002079
:102D30004D2E0020A098002038AA002049540020E1
:102D4000FEB505460E4617461C46002C08D100204D
:102D500003463A4631460090284600F00CF8FEBD86
:102D60000194012001AB3A4600210090284600F072
:102D700002F800BFF3E7FFB583B006460F461C46D6
:102D80000C9DCF2168460171CE214171CD21817109
:102D9000C6710772059941724581082101A803F0A7
:102DA000BFFF002C05D0002D03D02946204603F09C
:102DB000B7FF07B0F0BD000010B50246002107E0E4
:102DC0008B000F48C05A904201D1084610BD491CE3
:102DD0000B480838006B8842F2D809480838006B65
:102DE0000A280AD206480838006B054B083B1B6BC3
:102DF0005B1C034C083C2363E8E70020C043E5E785
:102E0000D0B3002002461078302806DB107839282D
:102E100003DC10783038087016E01078612806DB83
:102E20001078662803DC1078573808700CE01078AA
:102E3000412806DB1078462803DC10783738087004
:102E400002E01520C04370470020FCE745E0002168
:102E5000C9432248FFF786F804466589E0790300F4
:102E6000FFF7D0F9050409190521290000BF1CA0AE
:102E7000FEF7B0FE26E026460C36201D03F062FA6F
:102E80002946304603F03AFA617A207A2B463246D8
:102E9000FFF79AFE16E0617A207A2B4622460C3222
:102EA000FFF7C7FE0EE0617A207A2B4622460C32ED
:102EB000FFF7D8FE06E0627A217AE0790123FFF776
:102EC0003FFF00BF00BFFF2105312046FEF75BFE3C
:102ED00021460748FFF73AF800BFB8E774760020AC
:102EE0004E6F7420696D706C656D656E740A0000BC
:102EF0006476002070B504460D462946204600F051
:102F0000C3F870BDF0B585B0064614460496049E1D
:102F1000707A317A0002084302903046FFF728F8B1
:102F200003900398002807D1E1B201230022022078
:102F3000FFF706FF05B0F0BD0498C079002811D056
:102F40001A2C01D1012700E002273A460299039882
:102F500000F0B2FC002803D10398FFF70FF8E9E76F
:102F6000012508E00299039800F032FB002801DAFD
:102F7000012500E000250AA0234609A209A1009529
:102F800001900BA0FEF726FE0398FEF7F7FFE1B2D3
:102F90002B4600220220FFF7D3FE00BFCAE7000045
:102FA00000000000627474657374657200000000B4
:102FB0005B25735D202573436F6E666967207375AB
:102FC00062736372697074696F6E20286F70202558
:102FD00075292073746174757320257525730A0033
:102FE000FEB506460F46144903C901910090694693
:102FF0003046FEF7C9FF0546002D07D10FA30FA2EB
:103000000FA112A0FEF7E6FD01240DE00BA30BA219
:103010000BA115A0FEF7DEFD2846FEF7AFFF03204B
:1030200003F05EF8002400BF234600220E21012099
:10303000FFF786FEFEBD0000AC6E00200000000021
:103040006274746573746572000000005B25735DC3
:10305000202573436F6E6E656374696F6E206661C1
:10306000696C656425730A005B25735D20257343D5
:103070006F6E6E656374696F6E2070656E64696EE5
:103080006725730A0000000010B50246002004E026
:103090001378521C4340034CE05C0B46491E002B46
:1030A000F6D110BDB46E002010B5254803F000FD28
:1030B000202188430446224903F031FD204803F0D3
:1030C000F7FC2021084304461D4903F028FD1C4855
:1030D000001D03F0EDFC2021084304461849091D9A
:1030E00003F01DFD174803F0E3FC04092401154912
:1030F000204603F014FD134803F0DAFC03210843D3
:103100000446104903F00BFD0E4803F0D1FC0121E9
:10311000C902084304460B4903F001FD0A498B200C
:10312000000403F0FCFC0849091F0020C04303F021
:10313000F6FC05491039054803F0F1FC10BD00000C
:10314000102000401060014010D0004003808040FB
:1031500010B504460B49204603F0E1FC09490A205A
:1031600003F0DDFC07490D2003F0D9FC00BF054842
:10317000001D03F09DFC0121890208400028F6D0C3
:1031800010BD000008D00040F8B50546094E0A49B8
:10319000681A0C21FEF7FEFE0446E106C90E012066
:1031A00088400746610989008819F943FEF7F8FE4F
:1031B00000BFF8BD74740020CC730020F8B505463C
:1031C000094E0A49681A0C21FEF7E4FE0446E1069E
:1031D000C90E0120884007466109890088193946CF
:1031E000FEF77EFE00BFF8BD74740020CC73002093
:1031F000FFB58BB00E4617461C461B2204A90B9840
:10320000FFF714FC5C4901200856B04206DC0B981D
:103210000178594820308078814201D00FB0F0BD4C
:103220000096A3883A4604A954A0FEF7D3FC61484F
:10323000007810210840002822D1042F20D02046F9
:1032400000F017FC0546A807800F002806D15AA3F6
:1032500059A25AA15CA0FEF7BDFCDFE755480078F3
:103260000421084000280AD0E807C00F002806D132
:1032700051A351A251A15EA0FEF7ACFCCEE700BF66
:10328000042F3DD1654800688088002806D14AA3F4
:1032900049A24AA162A0FEF79DFCBFE75F48006813
:1032A00005682878694608720622691C02A8013060
:1032B000FEF750FC02A90B98FFF73CFB002806D054
:1032C0003DA33DA23DA162A0FEF784FC33E0A97AB4
:1032D0006A7A08021043A188401881B26972090A0B
:1032E000A972287A042108432872A1884B480068F3
:1032F000FEF75CFE0190A2882168FEF72BFC1AE025
:1033000046480068808800280FD01B4800780028B5
:103310000BD1424800688088009040480068002235
:10332000812103680120FFF726FD224631460B98D4
:1033300003F0DAFA00BF1048007800280BD13748B4
:103340000068808800903548006800228121036869
:103350000120FFF710FD08480078022803D0064836
:103360000078032805D123463A4631460B9802F0EF
:103370007BFC00BF52E70000FDAC0020446576698D
:1033800063653A2025732C204144206576656E7470
:1033900020747970652025752C2041442064617467
:1033A00061206C656E2025752C20525353492025D1
:1033B000690A0000E877002000000000627474656C
:1033C00073746572000000005B25735D2025734EE9
:1033D0006F6E20646973636F76657261626C652CD1
:1033E00020736B697070696E6725730A00000000B6
:1033F0005B25735D20257347656E6572616C206483
:103400006973636F76657261626C652C20736B699A
:103410007070696E6725730A00000000EC77002069
:103420005B25735D2025734E6F2070656E64696E39
:1034300067206164766572746973656D656E742C5E
:1034400020736B697070696E6725730A0000000055
:103450005B25735D2025734164647265737320641A
:103460006F6573206E6F74206D617463682C2073B8
:103470006B697070696E6725730A000070B5054648
:10348000094C0CE06068002808D0206801682846D4
:10349000FEF792FD002801D1204670BD0C34034890
:1034A0008442EFD10020F8E7CC7300207474002030
:1034B000F8B504460F46124D207828700622611C8C
:1034C000681CFEF747FBEF71002639460DA0FEF79A
:1034D00081FB00BF05E00A48815D12A0FEF77AFB80
:1034E000761C082EF7D311A0FEF774FB0820044BBE
:1034F0000022472100900420FFF73DFCF8BD0000AA
:103500002CAD00206465766963655F727373695FD3
:103510007265706F72745F6576656E745B25645D4D
:103520003A20000025303278200000000A00000018
:10353000F3B581B00C46184D18480068FEF7E2FC60
:103540000746387828700622791C681CFEF702FBB3
:10355000EC712246284608300199FEF7FBFA002656
:103560000FA0FEF737FB00BF05E00B48815D15A0FB
:10357000FEF730FB761C20460830B042F5D813A089
:10358000FEF728FB20460830034B0022462100901E
:103590000420FFF7F0FBFEBD2CAD0020DC76002000
:1035A0006469735F6D616E75666163747572655F82
:1035B0006E616D655F7265706F72745F6576656E62
:1035C000743A200025303278200000000A00000004
:1035D000F8B507460E46304602F086FA0546002D3D
:1035E00002D11520C043F8BDA88C002807D112A332
:1035F00011A212A114A0FEF7EDFA0020F3E729466C
:103600003846FEF7DFFC0446002C0AD00AA0234609
:1036100009A20AA1009014A0FEF7DCFA0F20C04313
:10362000E1E705A304A205A119A0FEF7D3FA002043
:10363000A88400BFD7E70000000000006274746532
:1036400073746572000000005B25735D2025734E66
:103650006F20737562736372697074696F6E206630
:103660006F756E6425730A005B25735D20257355A5
:103670006E737562736372696265206661696C65F9
:103680006420286572722025642925730A000000D1
:103690005B25735D202573556E7375627363726964
:1036A000626520737563636573730A25730A00008E
:1036B000FEB505462E460027002000900190694681
:1036C0003046FFF737F900280ED11448006800286B
:1036D0001CD0132111480068FEF7FCFB002801D024
:1036E000012713E0002711E02846FEF741FC0446BD
:1036F000002C08D013212046FEF7ECFB002801D057
:10370000012700E000272046FEF738FC3B46002258
:103710000F210120FFF714FBFEBD0000DC76002026
:10372000FEB50D461446002D5ED12820005D002810
:103730001FD100F0E1F90090009800280AD0002184
:103740002820015538490098886101200884801E8E
:10375000C8840DE0032128200155002032498861EA
:1037600032A0FEF737FA01202F490884801EC88452
:1037700026E02820005D032812D1042128200155CD
:103780003048314948800846274988612F48808A57
:1037900008842E48C08AC8842DA0FEF71BFA0FE0CB
:1037A0002820005D04280BD12FA0FEF713FA2C214E
:1037B0002046FEF7E8F9062002F0C8FC0020FEBD16
:1037C0002E481949C8612E480068FEF701FC0646DC
:1037D000002E04D031462BA0FEF7FCF902E030A009
:1037E000FEF7F8F90020EAE72820005D002805D060
:1037F000012802D0032810D108E000BFEF6828207C
:10380000025D2946384601F041FD0AE0E868019072
:103810002946019801F046FC03E0284601F018FD16
:1038200000BF00BF0120CAE7A09D00206469736348
:103830006F76657220636861726374657269737410
:1038400069630A00082900007E770020CC9D0020D3
:10385000646973636F7665722064657363726970FF
:10386000746F720A00000000446973636F766572BA
:1038700020636F6D706C657465210A00213700202C
:10388000DC760020446973636F7665722066616937
:103890006C65642028657272202564290A00000086
:1038A00066756E6320446973636F76657220706518
:1038B0006E64696E670A0000F7B582B00E4600F0CC
:1038C00003F90446002C09D125A325A225A128A08F
:1038D000FEF780F91020C04305B0F0BDA08C002891
:1038E00009D01FA00090A38C1DA21EA12AA0FEF744
:1038F00071F9012522E0E68404982085701EA084D9
:103900003548206201212A20015521460298FEF700
:1039100065FBC7B2002F09D011A03B4610A211A130
:1039200000902EA0FEF756F9012507E00CA30CA28B
:103930000CA133A0FEF74EF9002500BF208D012811
:1039400001D11A2000E01B200190012D00D100249C
:103950002B46002202200199FFF7F2F90020BBE775
:1039600000000000627474657374657200000000EA
:103970005B25735D2025734E6F206176616C6961F4
:10398000626C652073756263726962652070617232
:10399000616D7325730A00005B25735D20257343F9
:1039A000616E6E6F74207375627363726962653ADB
:1039B00020737562736372697074696F6E20746FBF
:1039C00020257820616C726561647920657869735F
:1039D000747325730A000000E14D00205B25735DC0
:1039E000202573537562736372696265206661692D
:1039F0006C656420286572722025642925730A008D
:103A00005B25735D2025735375627363726962650C
:103A10006425730A00000000F8B507460C4600252F
:103A200000260AE03101206840180089A84203DD21
:103A30003101206840180589761C6068B042F1D8D1
:103A40002089A84214D0258129463846E26890474B
:103A50002168481CFEF7C8FA002809D0398A684650
:103A6000018045802168481C6946FFF749F800BF7E
:103A7000F8BD30B5014600221FE01046541CE2B2EA
:103A80000D682B5C002B00D11AE08888801A9842C0
:103A900003DB8888801A012800DA11E01046541CE4
:103AA000E2B20D68285C012802D10868805C30BD54
:103AB00000BF00BF581E8018C2B288889042DCDC6C
:103AC00000BF0020F3E7000000210A2200BF0CE045
:103AD00048204843074BC018808F002804D1482055
:103AE0004843C01818307047491C9142F0DB002051
:103AF000F9E70000E89D002010B5032102220F48DD
:103B00000078884209DA0D4803780078401C0B4C95
:103B1000207098000A4BC01810BD0A4800789042E7
:103B20000ADA084803780078401C064C2070180117
:103B30001818054BC018EFE70020EDE76677002066
:103B400038770020677700204477002010B50246C0
:103B500000210A2300BF0CE048204843074C00190D
:103B6000C08F904204D1482048430019183010BD3E
:103B7000491C9942F0DB0020F9E70000E89D002095
:103B800070B504462068C5680748084908670849B1
:103B900006484167002201210E20FEF74BF80E2651
:103BA0006868FEF789F870BDD8730020A09C0020DB
:103BB0001D0A0100F8B504460D46164660680090DF
:103BC000009833462A46002147682046B847F8BD8A
:103BD000FEB504460D4602AA00211D48FEF70AFA6A
:103BE0000746002F06D01BA31AA21BA11CA0FDF79D
:103BF000F1FFFEBD029886683078002800D0F8E713
:103C00000822711C6846FDF7A5FF00BF002D0BD0F0
:103C1000E0106946085C6207520F01219140084399
:103C2000E1106A4650540AE0E0106946085C6207F9
:103C3000520F012191408843E1106A465054684672
:103C400000F06CF80298FEF7DBF900BFD1E7000046
:103C5000032000000000000062745F686F7374004E
:103C60005B25735D20257372656164206C65206639
:103C7000656174757265206661696C65640A257397
:103C80000A00000010B504A0FDF7A4FF0520800283
:103C900002F098FE10BD00007265626F6F742066BE
:103CA0006F72206C6C636320726574727920666138
:103CB000696C65640A000000F8B506460D461746B3
:103CC000042E17D12C462078FF2812D160783E2888
:103CD0000FD1A07880280CD1E078FE2809D1E079B6
:103CE000012806D106A0FDF775FF0520800202F02D
:103CF00069FE00BF3A4629463046FEF787F9F8BD0F
:103D00007265626F6F7420666F7220706F77657274
:103D10005F6F6E206576740A00000000F8B50646F5
:103D200008211348FEF778F90546002D02D1362008
:103D3000C043F8BD08216818FEF738F90746082285
:103D400031463846FDF706FF002229460848FEF7AF
:103D500051F90446002C09D006A0234605A206A16D
:103D6000009007A0FDF736FF2046E2E70020E0E7DD
:103D7000F2FF00000000000062745F686F7374005F
:103D80005B25735D202573736574206C6F63616CB4
:103D90002066656174757265206661696C65642072
:103DA00025640A25730A000008B5034800680090DE
:103DB000684602F009FA08BDA06E0020F3B581B094
:103DC0000C46174D17480068FEF79CF807463878F0
:103DD00028700622791C681CFDF7BCFEEC71A2005D
:103DE000284608300199FDF7B5FE00260EA0FDF724
:103DF000F1FE00BF05E00A48815D12A0FDF7EAFE72
:103E0000761C3C2EF7D311A0FDF7E4FEA00008308D
:103E1000034B0022432100900420FEF7ACFFFEBDBF
:103E20002CAD0020DC760020686964735F726570D9
:103E30006F72745F6576656E7420646174613A2098
:103E40000000000025303278200000000A00000049
:103E50007FB5002000900190029003901A480068FE
:103E6000002808D119A0FDF7B5FE01F05DFC09207E
:103E700002F06CF97FBD002407E0A000174940184C
:103E8000008861006A465052641C154800888442CC
:103E9000F3DB14481449886111480088C8616846FA
:103EA000086209480068FEF7BDF80546002D08D0F5
:103EB00029460EA0FDF78EFE01F036FC092002F027
:103EC00045F900BFD6E70000DC7600204E6F742075
:103ED000636F6E6E65637465640A00007CA90020E0
:103EE0006A770020B5530020C8A9002047415454E8
:103EF000206D756C7469706C6520726561642072E8
:103F0000657175657374206661696C6564202865E8
:103F10007272202564290A0000BFFEE770B50546CD
:103F20000849094881630949383041600022114637
:103F30001720FDF77FFE17241720FDF7BDFE002098
:103F400070BD000044740020209D0020513F0020DF
:103F5000FEB505462868C0680190AC68464802F086
:103F6000ADFDC007C00F00284ED06078012831D1C8
:103F7000E088A188884202D16088002810D03E489D
:103F8000001F02F09BFD1021884306463A49091F95
:103F900002F0C9FDA0883849083102F0C4FD0AE0EA
:103FA0003548001F02F08AFD1021084306463249B9
:103FB000091F02F0B8FD3048001F02F07FFD01210B
:103FC0004902084306462C49091F02F0ACFD0120B6
:103FD000207013E0002020702749091F02F0A3FD84
:103FE0002649A06802F09FFD2069002806D10199AA
:103FF000087AFDF73FFF2846FEF71AF8A088E08010
:104000001D49012002F08FFD1D4802F057FD4007B9
:10401000C00F00282ED01A4802F050FD4005C00FF6
:10402000002820D0164802F049FD8005800F00903E
:104030001348001D02F042FD060C1148083002F042
:104040003DFD07460098002802D0012804D100E079
:1040500000BFB6B2FFB200BF00BF3A4631462046AD
:1040600000F029F900BF064802F028FD0646044981
:1040700002F059FDFEBD0000040101400460014052
:1040800004000140F3B581B00D4601980068C66890
:104090000198846800BFFDF743FD0746F0880028BB
:1040A00002D001280BD100E000BFA8786880A87872
:1040B000FF214840000269880843688000BF00BFB4
:1040C000287960706888A0806078012843D12078C2
:1040D000002840D12069002808D10198FDF7AEFFE3
:1040E000707AFDF7B1FF307AFDF7CAFE1D4802F085
:1040F000E5FCA0601B491C4802F015FDB0881B4977
:1041000002F011FDA0881949091D02F00CFDF1888B
:104110000C22114308461549083902F004FD1348E2
:10412000083802F0CBFCFF21613108430F49083900
:10413000009002F0F8FC0D48083802F0BFFC0121A5
:104140004902084309490839009002F0ECFC0120BB
:104150002070A088E08000BF3846FDF7E5FC00BF76
:104160000020FEBD046001400E1000000801014067
:10417000F8B504460D4627463E68706800900098E2
:1041800001683046884700BF3E687068009000981C
:10419000294682683046904700BFF8BD70B5054695
:1041A000084C2846FFF76AF920602068002807D1EC
:1041B00005A305A205A106A0FDF70CFD002070BD1A
:1041C0002046FCE7F87700200000000069726300D9
:1041D0005B25735D20257363616E6E6F7420666F5F
:1041E000756E64206972632064657625730A000029
:1041F00070B504462068C568A668A87AFDF73AFE3F
:10420000287AFDF737FE687AFDF71EFF0449002083
:1042100002F089FC002030612046FDF709FF70BDE7
:1042200004600140F8B504462068C568A668687A4D
:10423000FDF70AFF287AFDF723FEA87AFDF720FE96
:1042400019498F2002F06FFC184802F037FC07462E
:10425000164902F068FC1548001F02F02FFC0C21E3
:10426000084307461149091F02F05DFC0F48001F73
:1042700002F024FC01210904084307460B49091FE9
:1042800002F051FC0948001F02F018FC012149040A
:10429000084307460549091F02F045FC2046FDF783
:1042A000CDFE01203061F8BD0460014004000140F2
:1042B0008268D16070477CB504460D461646E068BA
:1042C000002808D001216846018045800196694692
:1042D0000020E26890477CBD0A4681680023CB60DD
:1042E0007047000070B505460C462088012804D0B0
:1042F00021880BA0FDF76EFC70BD218812A0FDF790
:1043000069FC618813A0FDF765FC15A06168FDF7E5
:1043100061FC0821204601F063F900BFECE70000D2
:10432000696E7075742074797065206E6F74207377
:104330007570706F72742076616C2D3E7479706543
:104340002025640A00000000747970653A203078F6
:1043500025780A00636F64653A20307825780A0072
:1043600076616C75653A20307825780A0000000087
:104370000D480078002801D00120704700210DE091
:1043800088000A4A801880780A2806D18800801898
:10439000C078022801D10120EFE7491C04480088B9
:1043A0008142EDDB0020E8E76E7700207CA9002049
:1043B0006A77002070B504460D462A462146024819
:1043C000FDF748FE70BD0000CC090020FEB5064692
:1043D00037462C3F3C46483C207B022804D1132121
:1043E0002046FDF777FDFEBD1B480068002810D071
:1043F00019480068804700280BD1184801780078D8
:10440000401C164A10701E2903DA2046FDF728FECC
:10441000E9E700201149087011480068002802D01F
:104420000F48056811E06020015B6846018062204A
:10443000015B684641806420015B6846818066209C
:10444000015B6846C1806D4600BF29462046FDF7E6
:104450000DFE00BFC7E7000090790020947900208E
:10446000240C002070B58AB006460C463046FDF795
:1044700049FD05460622691C08A80130FDF76AFBC4
:10448000287808A908701B2201A92846FEF764FABB
:10449000002C0ED0224601A914A0FDF79BFB07209B
:1044A00008AB0022832100900120FEF764FC0AB0D3
:1044B00070BD042001F014FE01A914A0FDF78AFBD1
:1044C000164806603046FDF7D7FD072008AB0022EE
:1044D000822100900120FEF74EFC11A0FDF77AFB2F
:1044E000022001F033FE00BFE1E700004661696C85
:1044F000656420746F20636F6E6E65637420746FE3
:1045000020257320282578290A000000636F6E6E2D
:1045100065637420746F2025730A0000DC76002028
:1045200073656E6420636F6E6E6563746564206D81
:1045300073670A0070B58AB005460E462846FDF737
:10454000E1FC04460020FDF79DFD01F025F9002067
:104550001E4908701E4908701E49087000211E4837
:104560000173417381731B2201A92046FEF7F4F900
:104570001A480068A84207D019A0FDF72BFB0920B4
:1045800001F0E4FD0AB070BD002001F0A9FD134860
:104590000068FDF7F3FC002010490860324601A9CD
:1045A00014A0FDF717FB0622611C08A80130FDF7D7
:1045B000D1FA207808A90870072008AB00228321CF
:1045C00000900120FEF7D7FB00BFDBE7E07600207C
:1045D000E1760020F07700201DAD0020DC76002081
:1045E000646973636F6E6E6563746564206572726F
:1045F0000A000000446973636F6E6E6563746564DE
:104600003A2025732028726561736F6E2025782902
:104610000A000000F8B507460C4615461E4633460C
:104620002A46214601A0FDF7D5FAF8BD4C45206386
:104630006F6E6E20706172616D207570646174655B
:10464000643A20696E7420307825303478206C61AB
:104650007420256420746F2025640A00F0B589B0A9
:1046600005460C462846FDF74DFC06461B2202A9CE
:10467000FEF772F9022C2FD01F4801780078401CF9
:104680001D4A107003291DDA1CA0FDF7A3FA284665
:10469000FDF738FC0190FDF7FBFC0746FDF7FEFC3B
:1046A00002211E480068FDF7FFFC0646002E08D0D8
:1046B0001BA0FDF78FFA00200F490870092001F0B8
:1046C00045FD17E01CA0FDF785FA00200A49087097
:1046D000092001F03BFD0DE0224602A91DA0FDF7D7
:1046E00079FA002004490870052001F02FFD01200F
:1046F0002449087009B0F0BDE27600204661696C7B
:10470000656420746F2073657420736563757269C6
:1047100074792C2072657472792E0A00DC76002080
:104720004661696C656420746F20736574207365DD
:104730006375726974790A00536563757269747977
:104740002073657474696E672061626F7274210AE8
:104750000000000053657420736563757269747995
:10476000207375636365737366756C6C792C206157
:10477000646472202573206C6576656C2025752035
:104780000A000000E0760020F8B50EA0FEF776FEE5
:104790000E49086008460068002803D10CA0FDF708
:1047A00019FAF8BD094812250126046860680090CE
:1047B000009833462A46002107682046B84700BFC4
:1047C000EFE700004750494F0000000084770020C9
:1047D00063616E6E6F7420666F756E6420646576BB
:1047E000696365206C65640A0000000010B504462A
:1047F00017480068401C1649086001280AD10020AB
:104800001449087008460278122113480068FFF71F
:10481000D1F91BE00E480068072817D30C48006840
:10482000092813D80B48007801214840094908702D
:1048300008460278122108480068FFF7BBF90448CF
:104840000068092802D100200149086010BD00005D
:10485000887700208C7700208477002010B5FF2215
:10486000F53211460148FDF725FC10BDA876002061
:104870007CB5444800680090424840680190424836
:10488000C078002817D06D46FF26002403E0285D7D
:104890008019C6B2641C072CF9DBE879B04209D054
:1048A0003A48008A401C3949088200210120FDF75E
:1048B00007FC7CBD00BF68460078012802D00E28A6
:1048C00057D118E0FDF702FC02202F498870002123
:1048D0002D481830C172684640785A2805D168467C
:1048E0008078A52801D1012000E000202649C87069
:1048F00000F056F8DDE768464078032836D12248B4
:104900004078002800D1D4E71F488169007F8007E4
:10491000800F0E181C48C08B81001B48007F800749
:10492000800F091A1848007F0007800F081A85B207
:1049300029463046FEF7DEFA04461348407FA0427F
:104940000BD01248008E401C10490886FA200E49F0
:1049500088710120FDF7C0FBABE70C48408A401C82
:104960000A4948820120FDF7B7FBA2E700BF00BF5C
:1049700000BF00BF00BF01990098FDF7B3FB00BF67
:1049800097E7000000200240300B0020EC0A0020D6
:1049900010B5FFF76DFF10BD10B5FDF7A9FB10BDF9
:1049A0001CB50221684601705A214170A521817011
:1049B000BE21C170FDF7A2FB1CBD0000FFB585B094
:1049C00005460C461646A007800F04900020039071
:1049D00000BFFDF7A5F8074608E001970198FDF72D
:1049E000A3F800BF00BFFDF79BF807464348807857
:1049F0000228F2D1414840780028EED13F48407863
:104A0000002804D1FDF780FB01203C49487000BF1D
:104A10003846FDF789F800BF012D10D0022D02D0D5
:104A2000042D12D105E036480088401C3449088026
:104A30000CE033484089401C3149488106E0304849
:104A4000C088401C2E49C88000E000BF00BF2B4832
:104A50008461C078002804D031462046FEF74AFA27
:104A60000390F01CC117890F09188903090C0291E2
:104A70000498241A2148058404988107890F1F4847
:104A800001770299C1831D49039848770898886483
:104A90000846C078002824D00846007F0299890083
:104AA0008A1B0499511A89000843C1B2134801773F
:104AB0001830C07A401CC1B210481830C1720F497A
:104AC0008868FDF727FB0D481830C07A00900B4826
:104AD000437FC28B017F1830007A0190FDF720FBE5
:104AE0000AE0064BDA8B197FE8B2FDF71FFB03489B
:104AF000C18B2046FDF720FB09B0F0BD300B002034
:104B0000EC0A002008B54D20FEF722FB0448054BB7
:104B1000054A064900900648FDF714FB002008BD31
:104B20004D1700207D340020B12200201D240020DC
:104B3000A09C002070B504460025002C05D121461C
:104B40000548FDF705FB054604E021460348FDF74F
:104B5000FFFA0546284670BD447500206C7500209C
:104B60008268002A02D102460C32826082685218A2
:104B70000260002282807047F8B5044600BFFCF74F
:104B8000CFFF0546606A002807D100BF2846FCF722
:104B9000CBFF00BF1520C043F8BD00BF2746083734
:104BA000002671098900C819FDF7D8FA009000980D
:104BB0003041C007C00F00BF00280ED0666A2146F2
:104BC000304601F07EFF00280BD100BF2846FCF7DD
:104BD000ABFF00BF1520C043DEE720460C30FDF7D9
:104BE0002FFB002060622746083700260120B040D6
:104BF000009071098900C8190099C943FDF7D0F9DF
:104C000000BF00BF2846FCF78FFF00BF0020C3E7AE
:104C1000FEB50024B5E05E4800680290BB2080002D
:104C200060435C4A8018811C02A8FDF79DFA0028A9
:104C300016D0BB2080006043564A8018811C56481D
:104C4000FDF792FA00280BD0BB2080006043514A48
:104C50008018811C5148FDF787FA002800D08FE0AA
:104C6000002583E0BB20800060434A4940181C3087
:104C7000482169434018007D1021084000280DD1CB
:104C8000BB2080006043434940181C3048216943E1
:104C90004018007D20210840002865D0BB208000FE
:104CA00060433C4940181C3048216943401806467F
:104CB0001836BB2080006043364940181C3048211C
:104CC0006943401802903248001D00680190304846
:104CD000083000680090BB20800060432D4A801897
:104CE0001C3048226A43811801A8FDF73DFA0028CC
:104CF0000DD0BB2080006043264A80181C3048221B
:104D00006A4381186846FDF72FFA002800D12CE08D
:104D10000298408A801CF0840298408A401CB0842B
:104D20000298007D10210840002801D0012000E0F9
:104D3000022030851A48306201212A2081553146EF
:104D400018480068FDF74AF90746002F07D0394692
:104D500015A0FCF73FFF092001F0F8F903E0F18C02
:104D600018A0FCF737FF00BF00BF6D1CBB20800000
:104D7000604308494018008BA84200DD72E700BF7D
:104D8000641C16480078844200DA44E7FEBD000047
:104D9000846E0020CC9D0020147700202577002011
:104DA000E14D0020DC7600207375627363726962E6
:104DB00065206661696C65642028657272202564CF
:104DC000290A000073756273637269626564206802
:104DD000616E646C652025640A000000367700204F
:104DE000FFB585B015461C46824E0598FDF78AF83A
:104DF000049000200290FDF7D3FC08300699C98C7E
:104E0000884223D1092C1ED128780B281BD1681C7D
:104E100001900198807801020198C07808187649BD
:104E20000880019842780178734803887348FCF73A
:104E3000D1FE0598FDF766F800906F48018800984C
:104E4000FDF76EFC00BF012009B0F0BD6C48007B8F
:104E5000002804D16BA0FCF7BDFE0120F4E7002C74
:104E60001FD0032C15D10020019007E00198295C88
:104E700069A0FCF7AFFE0198401C01900198A04288
:104E8000F4DB67A0FCF7A6FE6878070229780F43D9
:104E900006E0052C04D16878070229780F43032423
:104EA00000BFFFF765FA00282CD05E48874207D084
:104EB00083208000874203D00120000387420AD16B
:104EC00059480078002806D10A2001F03FF9012056
:104ED0005549087016E0032C01D1002F05D1082C8C
:104EE00003D0052C0ED1002F0CD04F48007800289D
:104EF00008D000204C4908700120029003240B20A8
:104F000001F024F9002D0AD148A348A248A14BA0E2
:104F1000FCF760FE002106988184002094E7384861
:104F20000079002803D036480079012805D1069978
:104F3000C88CFEF70BFE039004E00699C88C00F0C5
:104F4000D3FD03900398002801D101207CE703984A
:104F5000008DF0710398808C3072000A7072B47208
:104F6000200AF072FFF704FA00280CD002980028FB
:104F700009D038A000680190032201A930460C3006
:104F8000FCF7E8FD22E0032C1AD1FEF70DFF1A30E2
:104F90000699C98C884213D12FA0FCF71BFE03226F
:104FA00029462E48FCF7D6FD04222C49491E3046DE
:104FB0000C30FCF7CFFD0420B0720020F07205E049
:104FC0002246294630460C30FCF7C4FD06220499DF
:104FD000491C701CFCF7BEFD049800783070204618
:104FE0000C30044B0022802100900220FDF7C3FE0C
:104FF000012029E7A8AC00207C7700206870002001
:105000001DAD002064726F70206E6F7469666963F5
:105010006174696F6E2E0A0025303278200000001E
:105020000A20000021020000F077002000000000AC
:105030006274746573746572000000005B25735DB3
:10504000202573556E73756273637269626564259A
:10505000730A0000CCCC00002A000000F277002088
:10506000F8B506460F463046FCF782FF0546002D90
:1050700001D101240FE002212846FDF715F8002890
:1050800004D001242846FCF779FF04E02846FCF709
:1050900075FF002400BF2346002211210120FDF7E7
:1050A0004FFEF8BDF0B58BB005460E46282101A88D
:1050B000FCF769FD252201A92868FDF75BF80024AB
:1050C00012E0318ABB2080006043574A8018808AF2
:1050D000814208DB318ABB20800060438018C08A8F
:1050E000814200DC04E0641C504800788442E8DB24
:1050F00000BF4E480078844201D10BB0F0BDBB2008
:105100008000604348494018078B0A2F00DBF4E712
:10511000286801F091FEBB2292006243424BD218F4
:105120001C3248237B430090D0182968009AFCF772
:1051300011FD318ABB20800060433B4A80181C303F
:1051400048227A43801841822979BB20800060433D
:10515000354A80181C3048227A4380180175286827
:1051600040883349884204D1308A401C3149088044
:1051700009E0286840882E491039884203D1308AD6
:10518000401C2D4908802D4800680090BB218900F3
:105190006143254A8918881C6946FCF7E5FF002809
:1051A0000AD0BB21890061431F4A8918881C244901
:1051B000FCF7DAFF002826D12879102108400028C2
:1051C00004D128792021084000281CD01D480078EF
:1051D000002813D0308A801C80B21B4909784A000D
:1051E00089181A4A89180870000A4870042016495C
:1051F00009784A008918154A891888701248007879
:10520000401C11490870BB208000604306494018CB
:10521000008B401C81B2BB2080006043024A801892
:10522000018300BF69E70000CC9D00203677002095
:10523000292A00007277002070770020946E0020E9
:10524000147700206C770020687700209CA900204C
:1052500010B58AB0044628216846FCF794FC252244
:1052600069462068FCF786FF218A06480288008884
:10527000401C044B18809000034A801801800AB03B
:1052800010BD00006A7700207CA90020F0B58BB02B
:1052900004460D461646282101A8FCF774FC304848
:1052A0000068009069462068FCF75EFF002803D183
:1052B00001202C49087012E02B492068FCF754FFAC
:1052C000002803D101202949087008E028492068F6
:1052D000FCF74AFF002802D1012026490870252248
:1052E00001A92068FCF746FFA3882A8A01A922A009
:1052F000FCF770FC2D480078042801DB0BB0F0BDF2
:105300002A480078BB2292005043294A165420684C
:1053100001F092FD0746254A1278BB239B005A43B1
:10532000234BD218901C3A462168FCF713FC298ABB
:105330001E480078BB22920050431D4A801881828B
:10534000A1881A480078BB2292005043184A80185E
:10535000C18216480078401C1449087000BFCDE790
:10536000906E00206C770020147700206D7700206D
:10537000257700206E77002053657276696365207B
:10538000257320666F756E643A20737461727420A1
:1053900068616E646C652025782C20656E645F689A
:1053A000616E646C652025780A0000003677002065
:1053B000CC9D0020F8B515461E463746002E05D177
:1053C00024212846FCF7DFFB0020F8BD0F4909889F
:1053D000E869884212D100240CE06000385CA1002A
:1053E0000B4A891888706000C0194178A0008018A5
:1053F000C170641C054800888442EEDB072000F081
:10540000A5FE01200349087000BFDEE76A7700208F
:105410007CA900207677002070B505460E463146FF
:105420000848FCF7ADFE0446002C00D170BD0C22EC
:105430002846A168FCF78EFB2046FCF7E1FD012021
:10544000F4E7000084760020F8B506460C46009686
:105450002068082801D23046F8BD0098C1798279C9
:105460000F021743252F09D914A314A214A117A0C2
:10547000FCF7B0FB002020603046EDE738460830EE
:105480002168814201D23046E6E700211A48FCF744
:1054900069FD0546002D09D108A308A208A117A09F
:1054A000FCF798FB002020603046D5E7311F1C48F0
:1054B000FCF74CFD00202060281DCDE70000000017
:1054C0006274746573746572000000005B25735D1F
:1054D0002025734254207465737465723A20696E96
:1054E00076616C6964207061636B6574206C656EB5
:1054F00067746825730A0000647600205B25735D7D
:105500002025734254207465737465723A20525892
:10551000206F766572666C6F7725730A0000000055
:1055200074760020F7B582B007460C461C4D38460D
:10553000FCF7E8FC0190002F04D11AA0FCF74AFB0D
:1055400005B0F0BD01980078287006220199491C29
:10555000681CFCF7FFFAEC7160002218284608303E
:105560000499FCF7F7FA00BF12A0FCF733FB002602
:1055700005E00B48815D17A0FCF72CFB761C3C2E48
:10558000F7D316A0FCF726FB600020180830044B68
:105590000022412100900420FDF7EDFB00BFCFE782
:1055A0002CAD00204E6F7420636F6E6E6563746562
:1055B000642E0A007265706F72745F6363635F6864
:1055C000616E646C65735F6576656E74206461748A
:1055D000613A200025303278200000000A000000E7
:1055E000F8B506460F460D4C3546082F00D0F8BDDD
:1055F00028882070000A60706888A070000AE07037
:10560000211D6868FCF7CAFA0820044B00224221D9
:1056100000900420FDF7AFFB00BFE8E72CAD0020B1
:10562000FEB50446264600200290FCF7AFFD0020A0
:105630000090019034466F46072239462046FCF719
:105640002BFC002810D116480068002820D0132118
:1056500013480068FCF73EFC002802D001200290AD
:1056600016E00020029013E03046FCF781FC05466E
:10567000002D0DD013212846FCF72CFC002802D069
:105680000120029001E0002002902846FCF776FC01
:10569000002204210846029BFDF752FBFEBD0000DC
:1056A000DC76002010B51F4801F005FA8408A4003C
:1056B0001C49204601F035FA1A48001D01F0FBF99B
:1056C00007210906884304461649091D01F029FAF5
:1056D0001448001D01F0EFF90721090608430446AC
:1056E0001049091D01F01DFA0E490839012001F089
:1056F00018FA002000E0401CFF21F5318842FADB57
:1057000000BF0848083801F0D6F90328F9D1054848
:1057100001F0D1F9022108430446024901F001FADF
:1057200010BD00000C20004010B500200E4908807C
:105730000E4908700E4908700E4908700E4908702D
:105740000E4908700E4908700E4908700E4908701D
:105750000E490870BB2109010D48FCF714FA0D48E9
:105760000021016010BD00006A77002066770020EC
:10577000677700206C7700206D7700206E7700201F
:1057800076770020F07700206877002036770020B9
:10579000CC9D00207CA9002010B5002033E0002122
:1057A00028E0BB2292004243194BD2181C324823F6
:1057B0004B43D218127D10231A40002A0DD1BB2270
:1057C00092004243124BD2181C3248234B43D2184A
:1057D000127D20231A40002A0BD00024BB22920005
:1057E00042430B4BD2181C3248234B43D218183279
:1057F0001485491CBB2292004243054BD218128BE0
:105800008A42CEDC401C034A12789042C7DB10BDAE
:10581000CC9D002036770020F8B5002420A0006839
:105820000090FCF7BDFF801C85B21E480078002860
:1058300000D1F8BD1C48008800280BD01B48006828
:10584000FCF760FB0646184801883046FCF768FF05
:105850000020EEE716488069002804D015A0FCF768
:10586000B9F90020E5E768461149086204208884F8
:10587000084685830020C883124888610B48006869
:10588000FCF78AFC0446002C04D021460EA0FCF74D
:10589000A1F902E012A0FCF79DF92046C9E700003B
:1058A0000A0004036E7700207C770020DC7600205D
:1058B00010AA00205772697465206F6E676F696E59
:1058C000670A00006D6E002057726974652066617A
:1058D000696C65642028657272202564290A0000BD
:1058E00057726974652070656E64696E670A00009E
:1058F00038B50020009017480068002808D116A08D
:10590000FCF768F9FFF710FF092000F01FFC38BD15
:10591000154801886846018014480188684641801E
:105920001348144988610220C86168460862094822
:105930000068FCF777FB0446002C08D021460EA037
:10594000FCF748F9FFF7F0FE092000F0FFFB00BF6D
:10595000DDE70000DC7600204E6F7420636F6E6E12
:1059600065637465640A0000707700207277002018
:1059700051280020ECA900206D756C7469706C656D
:105980002072656164206661696C656420286572B7
:1059900072202564290A000070B549480078002863
:1059A00076D000244EE0002647E0600020184549EC
:1059B00041184878097800020843B100424A891822
:1059C0000988491E884237D1B000114640188078B6
:1059D0000300FCF717FC0C2907150E2916171819D8
:1059E0001A212229022061006118364A891888701C
:1059F00021E0012061006118324A891888701AE09C
:105A000000BF00BF00BF00BF00BF032061006118DE
:105A10002C4A891888700EE000BF002061006118D0
:105A2000284A8918887006E0042061006118254A18
:105A30008918887000BF00BF761C24480088864201
:105A4000B3DB641C224800788442ACDB2148007838
:105A500000281BD0002414E06000201819494018C9
:105A6000807803280CD1FCF79BFE0546681D80B2A8
:105A700061006118134A89180870000A487004E030
:105A8000641C134800788442E6DB00BF15E0FFE7A2
:105A900011480078002810D001F0E0F90546E81C14
:105AA00008490880032088702846083081B20548DC
:105AB000C170090A017102214171024870BD0000E4
:105AC0006C7700209CA900207CA900206A77002028
:105AD000687700206E7700206D77002001480078FD
:105AE000704700006877002030B50346002110E0C1
:105AF000BB20800048431F4D4019808A984207DC34
:105B0000BB20800048434019C08A984200DB04E073
:105B1000491C194800788142EADB00BF164800782A
:105B2000814201D1002030BDBB2080004843114D8F
:105B30004019048B002218E0BB20800048430D4D23
:105B400040191C30482555434019408A801C984212
:105B50000AD1BB2080004843064D40191C3048251F
:105B6000554340191830DEE7521CA242E4DB002006
:105B7000D9E70000CC9D00203677002010B5022028
:105B80000B4908704F20C0434870202209A10848E3
:105B9000801CFBF7DFFF00210548203081700121C8
:105BA000C17002210171002101734173817310BD25
:105BB000FDAC0020424C455F59545F524D430000FC
:105BC0007CB50646FCF7E2FA0546002D0ADA2846BF
:105BD0004530002806D0294610A0FBF7FBFF002027
:105BE000C0437CBD154903C9019100906946304608
:105BF000FCF7CAF90446002C04D111A0FBF7EAFF18
:105C0000601EEEE713A0FBF7E5FF2046FCF7B6F9B0
:105C1000032000F065FA0020E3E7000053746F7082
:105C2000204C45207363616E206661696C65642059
:105C300028657272202564290A000000986E0020F1
:105C4000436F6E6E656374696F6E206661696C6523
:105C5000640A0000436F6E6E656374696F6E207036
:105C6000656E64696E670A00FFB581B006460F462F
:105C70001446002C01D0042C06D13B4632460D4977
:105C80000498FCF791FB12E0012C10D10AA0FBF75D
:105C9000A1FF3046FFF794FF0546002D03D00CA06E
:105CA000FBF798FF03E039463046FDF701FC05B0ED
:105CB000F0BD0000E55C00204469726563746564B2
:105CC00020616476657469736D656E740A00000006
:105CD000726D635F636F6E6E656374206661696C7D
:105CE00065640A00FFB591B006460F461446149845
:105CF0001090202108A8FBF746FF032E50D0082E55
:105D000002D0092E65D100E000BF1D2C05D91D224F
:105D1000394608A8FBF71EFF04E02246394608A8CA
:105D2000FBF718FF08A80078EF2817D108A84078DB
:105D3000BB2813D108A88078BF280FD1202168463E
:105D4000FBF721FFE21E08A903316846FBF702FFBB
:105D50002246694608A8FBF7FDFE00BF08A91EA061
:105D6000FBF738FF224908A8FCF726F9002816D1CE
:105D700020A0FBF72FFF1098FFF722FF0546002D0C
:105D800006D023A0FBF726FF012000F0DFF920E07A
:105D90001A991098FDF78CFB012015B0F0BD18E0A2
:105DA0002549079125490691022207A93846FCF7A3
:105DB00073F8002803D101202149087008E002226D
:105DC00006A93846FCF768F8002801D11C4908707C
:105DD00000BF00BF0020E0E7446576696365206688
:105DE0006F756E64206E616D653A2025730A000040
:105DF000FFAC002052656D6F746520436F6E747246
:105E00006F6C6C6F7220666F756E642E0A000000F6
:105E10004661696C656420746F20636F6E6E6563A4
:105E20007420746F2072656D6F746520636F6E747B
:105E3000726F6C6C6F720A0012180000A0200000D4
:105E40006C77002010B5FFF799FEFEF79DFC00F07F
:105E500001F810BD10B50AA0FEF7A0F909490860C5
:105E600008460068002803D107A0FBF7B3FE10BD69
:105E7000094904480068FEF77BF900BFF7E7000016
:105E800049524300787700206F70656E2069726315
:105E9000206661696C0A0000E5420020FEB50646F6
:105EA0000025002740480068002803D03F480078BC
:105EB000002802D10020C043FEBD3C4800780028E5
:105EC0006ED03B480078002837D13AA103C902912F
:105ED0000190002411E0A0003849401880780A2879
:105EE0000AD1A0004018C078022805D1A0004018AF
:105EF0000088401E87B204E0641C31480088844258
:105F0000E9DB00BF002F04D12EA0FBF763FE781E53
:105F1000D2E7684646710020082301AA394600905E
:105F200021480068FCF73EF90546002D03D02946BC
:105F30002CA0FBF74FFE2846BEE730A00068029079
:105F4000FCF72EFC801C87B2002E01D00C2000E054
:105F50000D20694608722A488069002804D029A0CB
:105F6000FBF738FE0020A7E702A8254908620320B6
:105F70008884084687830020C883264888610A48A9
:105F80000068FCF709F90546002D04D0294622A037
:105F9000FBF720FE02E026A0FBF71CFE28468BE75D
:105FA0000020C04388E70000DC7600206C770020EA
:105FB0006E7700205A0100FFFFFF00007CA900203F
:105FC0006A770020686964206F7574707574206842
:105FD000616E646C65206E6F7420666F756E640A06
:105FE000000000007772697465206661696C656401
:105FF0002028657272202564290A00000C00010027
:1060000010AA00205772697465206F6E676F696E01
:10601000670A00006D6E0020577269746520666122
:10602000696C65642028657272202564290A000065
:1060300057726974652070656E64696E670A000046
:1060400010B505480078FCF731FC04480178044895
:10605000FDF76EFA10BD0000747700207577002000
:10606000B4A9002010B50D480068002803D10CA089
:10607000FBF7B0FD10BD0EA0FBF7ACFD02210748F9
:106080000068FCF711F80446002C05D00EA0FBF7C1
:10609000A1FD092000F05AF800BFEBE7DC760020F4
:1060A0004E6F7420636F6E6E65637465640A0000E2
:1060B0005374617274207365637572697479206CAE
:1060C0006576656C20320A004661696C65642074EF
:1060D0006F207365742073656375726974790A0043
:1060E0000149087070470000F577002070B505463B
:1060F0000C46214601A0FBF76DFD70BD6363635F35
:106100006366675F76616C7565203078253034781A
:106110000A0000003EB504460B480068FBF7F2FE9B
:1061200005460622691C01A80130FBF713FD2978FA
:1061300068460171C472082001AB0022442100901E
:106140000420FCF718FE3EBDDC7600203EB5044678
:10615000002000900190029068464470002100F0F9
:1061600001F83EBDF8B504460E463046FEF7E2FCA7
:106170000546002D09D10AA00090637808A209A164
:1061800009A0FBF727FD0020F8BD0C222146A868D6
:10619000FBF7E0FC29460B48FCF70AF80120F3E77F
:1061A000000000006D7367005B25735D202573643C
:1061B000726F70206D736720747970653A20256462
:1061C00025730A008476002070B50546002412E08D
:1061D000BB21890061430B4A8918881C2946FBF7BB
:1061E000C3FF002806D1BB2080006043054940184A
:1061F000808A70BD641C044800788442E8DB00207B
:10620000F7E70000CC9D002036770020F8B5044663
:106210000E462746072E05D13878002804D0387856
:10622000012801D0012509E0072221460748FBF794
:1062300091FC0025054800F035F800BF2B460022F0
:1062400001210420FCF77CFDF8BD000022AD0020F8
:10625000F8B505460F462C46252F0ED12078032889
:106260000BDC2420005D022807DC2220005D0028D2
:1062700005D02220005D012801D0012609E0252259
:1062800029460748FBF766FC054800F0ADF80026F4
:1062900000BF3346002201210420FCF751FDF8BD68
:1062A000FDAC00203EB50446217808A0FBF792FC27
:1062B000A07961792279009201910290E378A27825
:1062C000617807A0FBF786FC3EBD00006164647244
:1062D0006573735F747970653D307825780A0000C6
:1062E000616464726573733D25783A25783A257840
:1062F0003A25783A25783A25780A000070B506469E
:106300000C46002C10D0002508A0FBF763FC00BF52
:1063100004E0715D08A0FBF75DFC6D1CA542F8DB95
:1063200007A0FBF757FC00BF70BD0000636D645F02
:10633000646174613A20000025303278200000004A
:106340000A00000010B50446217810A0FBF742FCBB
:10635000617811A0FBF73EFCA17812A0FBF73AFC94
:10636000E17813A0FBF736FC217915A0FBF732FC8E
:10637000617917A0FBF72EFCE079A27900021043A7
:10638000014616A0FBF726FC10BD0000666C616795
:10639000313D307825780A00666C6167323D30788F
:1063A00025780A00666C6167333D307825780A00ED
:1063B000736572766963653D307825780A00000060
:1063C0006F70636F64653D307825780A00000000C7
:1063D000696E6465783D307825780A006C656E3D9D
:1063E0003078253034780A0010B5044621780EA0A4
:1063F000FBF7F0FB012161560EA0FBF7EBFB22201F
:10640000015D0FA0FBF7E6FB2320015D11A0FBF768
:10641000E1FB2420015D13A0FBF7DCFBA11C16A00F
:10642000FBF7D8FB10BD00006D6F64653D3078252B
:10643000780A0000727373693D25640A0000000049
:10644000616464726573735F747970653D3078253B
:10645000780A00006175746F5F73746172743D2512
:10646000640A00006E6F74696669636174696F6EB7
:106470003D25640A000000006E616D653D25730ACC
:1064800000000000F8B5044625682746A0370A2614
:1064900071098900C819FBF761FE0090009830412E
:1064A000C007C00F00280AD02068066F1748006890
:1064B00090233246092147683046B84700BF20463E
:1064C000FF307D30FBF77AFE0021A42001552046E5
:1064D0009C30FBF779FE00212046A030FBF774FECC
:1064E000687A297A884201D0287A6872E878002888
:1064F00005D10B2120469C30FCF7CAF8F8BD0121DC
:1065000020469C30FCF7C4F800BFF7E7FC0B0020E6
:1065100010B51E480068002803D11DA0FBF75AFBE8
:1065200010BD1F48808A00280ED01EA0FBF752FB2A
:1065300021480078002803D10620FFF707FE02E07B
:106540000620FFF703FEEBE7FFF7EEF8FDF7D4FABE
:106550001A4988611A48C861002118482030017220
:10656000012016490884801EC88408480068FBF78B
:106570002FFD0446002C04D0214612A0FBF72AFB75
:1065800002E017A0FBF726FB00BFC9E7DC7600207E
:106590004E6F7420636F6E6E65637465640A0000ED
:1065A000CC9D002048616E646C6520446973636F04
:1065B0007665726564210A006C770020A09D00203A
:1065C00021370020446973636F76657220666169C4
:1065D0006C65642028657272202564290A00000019
:1065E000446973636F7665722070656E64696E6767
:1065F0000A000000F3B583B006463746214903C9B7
:1066000002910190387802210840002801D001252C
:106610002DE0387808210840C008694608711A49F9
:1066200001A8FBF7D7FD0446002C0DD020464530CD
:10663000002809D015A0234614A215A1009017A088
:10664000FBF7C8FA012512E010A310A210A120A0A8
:10665000FBF7C0FA0220FFF743FD0021264800683F
:10666000FEF77EFA387825490870002500BF0498A7
:10667000002805D02B4600220C210120FCF760FBEE
:1066800005B0F0BDA46E0020F13100200000000034
:106690006274746573746572000000005B25735D3D
:1066A000202573426C7565746F6F74682073657410
:1066B00020616374697665207363616E2066616929
:1066C0006C656420286572722025642925730A0090
:1066D0005B25735D202573426C7565746F6F7468FC
:1066E00020616374697665207363616E20656E61F5
:1066F000626C656425730A00EC770020E87700205F
:1067000010B5002102480078FFF774FF10BD0000AB
:10671000E8770020F8B505460E462F46082E02D130
:10672000F879032801DB012418E0F879002804D067
:10673000012806D002280CD107E001210B48017383
:1067400009E001210948417305E0012107488173EF
:1067500001E0012402E000BF002400BF2346002224
:1067600003210420FCF7ECFAF8BD00001DAD002069
:10677000F8B506460F460025FBF708FD0446002C39
:1067800004DA20464530002800D001250020FFF71C
:10679000A7FC2B4600220D210120FCF7D1FAF8BD01
:1067A00070B5A4B00646002406A590216846FBF704
:1067B000EAF9902269462846FBF7C2FB04462046C8
:1067C00024B070BD42545F4B4559530010B5044688
:1067D0000248FBF705FD002010BD00005C700020A2
:1067E000FFB581B004460D461646002700200090F4
:1067F000002D04D0012D05D0092D09D105E011A0EF
:10680000009005E011A0009002E013A0009000BFEE
:1068100000BF009800280AD03146049A0098FBF780
:10682000E5FC0746002F02DA384605B0F0BD002C23
:1068300006D031462046FBF777FD002800D100271F
:106840003846F2E742545F41444452004C4F4341C2
:106850004C5F49524B00000042545F4B4559530076
:10686000F0B5A5B00C4615461E4600270020249022
:10687000002C04D0012C05D0092C1BD105E013A05D
:10688000249017E013A0249000BF15A0249090221C
:1068900069462498FBF7AAFC0746002F09DB9022E3
:1068A00029466846FBF7F8FA002802D1384625B099
:1068B000F0BD00BF00BF2498002805D0324629460D
:1068C0002498FBF73DFB07463846F0E742545F410A
:1068D000444452004C4F43414C5F49524B0000002E
:1068E00042545F4B45595300F8B506460F461446CF
:1068F000002111480068FEF733F90B210E480068AB
:10690000FBF754FB05460622711C681CFBF722F9B5
:1069100030782870EF7103202872A1886972090A03
:10692000A972A18804480068FBF740FB0090A28888
:106930002168FBF70FF9F8BDEC770020F8B50546A4
:106940000E462846FBF72AFA112802D01520C0432C
:10695000F8BD0524012725E003213846FBF71AFB83
:10696000002905D128783A2802D01520C043EFE746
:1069700028783A2801D1641E12E0305D0007000E2D
:10698000305569462846FCF73DFA002802DA152002
:10699000C043DDE7305D694609780843305500BFE4
:1069A0006D1C7F1C28780028D6D100BFD0E770B5B9
:1069B00005460E4600242346002205210420FCF74C
:1069C000BFF970BD1FB5054619A02B4618A219A125
:1069D00000901AA0FBF7FEF821A0FCF74FFD04463B
:1069E000002C07D112A312A212A120A0FBF7F2F8EB
:1069F00000BFFEE76420019000206946087200BFD6
:106A0000FBF78EF8284E29483060280A0002706093
:106A100001AF6068009000983946C26820469047F0
:106A200000BF676820463968884700BF00BFFEE79F
:106A300000000000706F7765720000005B25735DD9
:106A400020257373797374656D207265626F6F743E
:106A50002C20747970652025642125730A000000BC
:106A60005741544348444F47000000005B25735D85
:106A700020257363616E6E6F7420666F756E64207F
:106A80007761746368646F67206465766963652CF9
:106A9000206661696C656420746F207265626F6F37
:106AA0007425730A000000003840004052424F54E1
:106AB0000146086870470146086870470146086843
:106AC000704770B502460D46002300BF10680146AE
:106AD00021E0A94216D11C462846002C07D10668A1
